{
  "address": "0x06b177265Ab91593fc3A732aE9B824eA42f1b4b9",
  "abi": [
    {
      "inputs": [],
      "stateMutability": "nonpayable",
      "type": "constructor"
    },
    {
      "inputs": [],
      "name": "ECDSAInvalidSignature",
      "type": "error"
    },
    {
      "inputs": [
        {
          "internalType": "uint256",
          "name": "length",
          "type": "uint256"
        }
      ],
      "name": "ECDSAInvalidSignatureLength",
      "type": "error"
    },
    {
      "inputs": [
        {
          "internalType": "bytes32",
          "name": "s",
          "type": "bytes32"
        }
      ],
      "name": "ECDSAInvalidSignatureS",
      "type": "error"
    },
    {
      "inputs": [
        {
          "internalType": "address",
          "name": "spender",
          "type": "address"
        },
        {
          "internalType": "uint256",
          "name": "allowance",
          "type": "uint256"
        },
        {
          "internalType": "uint256",
          "name": "needed",
          "type": "uint256"
        }
      ],
      "name": "ERC20InsufficientAllowance",
      "type": "error"
    },
    {
      "inputs": [
        {
          "internalType": "address",
          "name": "sender",
          "type": "address"
        },
        {
          "internalType": "uint256",
          "name": "balance",
          "type": "uint256"
        },
        {
          "internalType": "uint256",
          "name": "needed",
          "type": "uint256"
        }
      ],
      "name": "ERC20InsufficientBalance",
      "type": "error"
    },
    {
      "inputs": [
        {
          "internalType": "address",
          "name": "approver",
          "type": "address"
        }
      ],
      "name": "ERC20InvalidApprover",
      "type": "error"
    },
    {
      "inputs": [
        {
          "internalType": "address",
          "name": "receiver",
          "type": "address"
        }
      ],
      "name": "ERC20InvalidReceiver",
      "type": "error"
    },
    {
      "inputs": [
        {
          "internalType": "address",
          "name": "sender",
          "type": "address"
        }
      ],
      "name": "ERC20InvalidSender",
      "type": "error"
    },
    {
      "inputs": [
        {
          "internalType": "address",
          "name": "spender",
          "type": "address"
        }
      ],
      "name": "ERC20InvalidSpender",
      "type": "error"
    },
    {
      "inputs": [
        {
          "internalType": "uint256",
          "name": "deadline",
          "type": "uint256"
        }
      ],
      "name": "ERC2612ExpiredSignature",
      "type": "error"
    },
    {
      "inputs": [
        {
          "internalType": "address",
          "name": "signer",
          "type": "address"
        },
        {
          "internalType": "address",
          "name": "owner",
          "type": "address"
        }
      ],
      "name": "ERC2612InvalidSigner",
      "type": "error"
    },
    {
      "inputs": [
        {
          "internalType": "address",
          "name": "account",
          "type": "address"
        },
        {
          "internalType": "uint256",
          "name": "currentNonce",
          "type": "uint256"
        }
      ],
      "name": "InvalidAccountNonce",
      "type": "error"
    },
    {
      "inputs": [],
      "name": "InvalidShortString",
      "type": "error"
    },
    {
      "inputs": [
        {
          "internalType": "string",
          "name": "str",
          "type": "string"
        }
      ],
      "name": "StringTooLong",
      "type": "error"
    },
    {
      "anonymous": false,
      "inputs": [
        {
          "indexed": true,
          "internalType": "address",
          "name": "owner",
          "type": "address"
        },
        {
          "indexed": true,
          "internalType": "address",
          "name": "spender",
          "type": "address"
        },
        {
          "indexed": false,
          "internalType": "uint256",
          "name": "value",
          "type": "uint256"
        }
      ],
      "name": "Approval",
      "type": "event"
    },
    {
      "anonymous": false,
      "inputs": [],
      "name": "EIP712DomainChanged",
      "type": "event"
    },
    {
      "anonymous": false,
      "inputs": [
        {
          "indexed": true,
          "internalType": "address",
          "name": "from",
          "type": "address"
        },
        {
          "indexed": true,
          "internalType": "address",
          "name": "to",
          "type": "address"
        },
        {
          "indexed": false,
          "internalType": "uint256",
          "name": "value",
          "type": "uint256"
        }
      ],
      "name": "Transfer",
      "type": "event"
    },
    {
      "inputs": [],
      "name": "DOMAIN_SEPARATOR",
      "outputs": [
        {
          "internalType": "bytes32",
          "name": "",
          "type": "bytes32"
        }
      ],
      "stateMutability": "view",
      "type": "function"
    },
    {
      "inputs": [
        {
          "internalType": "address",
          "name": "owner",
          "type": "address"
        },
        {
          "internalType": "address",
          "name": "spender",
          "type": "address"
        }
      ],
      "name": "allowance",
      "outputs": [
        {
          "internalType": "uint256",
          "name": "",
          "type": "uint256"
        }
      ],
      "stateMutability": "view",
      "type": "function"
    },
    {
      "inputs": [
        {
          "internalType": "address",
          "name": "spender",
          "type": "address"
        },
        {
          "internalType": "uint256",
          "name": "value",
          "type": "uint256"
        }
      ],
      "name": "approve",
      "outputs": [
        {
          "internalType": "bool",
          "name": "",
          "type": "bool"
        }
      ],
      "stateMutability": "nonpayable",
      "type": "function"
    },
    {
      "inputs": [
        {
          "internalType": "address",
          "name": "account",
          "type": "address"
        }
      ],
      "name": "balanceOf",
      "outputs": [
        {
          "internalType": "uint256",
          "name": "",
          "type": "uint256"
        }
      ],
      "stateMutability": "view",
      "type": "function"
    },
    {
      "inputs": [],
      "name": "decimals",
      "outputs": [
        {
          "internalType": "uint8",
          "name": "",
          "type": "uint8"
        }
      ],
      "stateMutability": "view",
      "type": "function"
    },
    {
      "inputs": [],
      "name": "eip712Domain",
      "outputs": [
        {
          "internalType": "bytes1",
          "name": "fields",
          "type": "bytes1"
        },
        {
          "internalType": "string",
          "name": "name",
          "type": "string"
        },
        {
          "internalType": "string",
          "name": "version",
          "type": "string"
        },
        {
          "internalType": "uint256",
          "name": "chainId",
          "type": "uint256"
        },
        {
          "internalType": "address",
          "name": "verifyingContract",
          "type": "address"
        },
        {
          "internalType": "bytes32",
          "name": "salt",
          "type": "bytes32"
        },
        {
          "internalType": "uint256[]",
          "name": "extensions",
          "type": "uint256[]"
        }
      ],
      "stateMutability": "view",
      "type": "function"
    },
    {
      "inputs": [],
      "name": "name",
      "outputs": [
        {
          "internalType": "string",
          "name": "",
          "type": "string"
        }
      ],
      "stateMutability": "view",
      "type": "function"
    },
    {
      "inputs": [
        {
          "internalType": "address",
          "name": "owner",
          "type": "address"
        }
      ],
      "name": "nonces",
      "outputs": [
        {
          "internalType": "uint256",
          "name": "",
          "type": "uint256"
        }
      ],
      "stateMutability": "view",
      "type": "function"
    },
    {
      "inputs": [
        {
          "internalType": "address",
          "name": "owner",
          "type": "address"
        },
        {
          "internalType": "address",
          "name": "spender",
          "type": "address"
        },
        {
          "internalType": "uint256",
          "name": "value",
          "type": "uint256"
        },
        {
          "internalType": "uint256",
          "name": "deadline",
          "type": "uint256"
        },
        {
          "internalType": "uint8",
          "name": "v",
          "type": "uint8"
        },
        {
          "internalType": "bytes32",
          "name": "r",
          "type": "bytes32"
        },
        {
          "internalType": "bytes32",
          "name": "s",
          "type": "bytes32"
        }
      ],
      "name": "permit",
      "outputs": [],
      "stateMutability": "nonpayable",
      "type": "function"
    },
    {
      "inputs": [],
      "name": "symbol",
      "outputs": [
        {
          "internalType": "string",
          "name": "",
          "type": "string"
        }
      ],
      "stateMutability": "view",
      "type": "function"
    },
    {
      "inputs": [],
      "name": "totalSupply",
      "outputs": [
        {
          "internalType": "uint256",
          "name": "",
          "type": "uint256"
        }
      ],
      "stateMutability": "view",
      "type": "function"
    },
    {
      "inputs": [
        {
          "internalType": "address",
          "name": "to",
          "type": "address"
        },
        {
          "internalType": "uint256",
          "name": "value",
          "type": "uint256"
        }
      ],
      "name": "transfer",
      "outputs": [
        {
          "internalType": "bool",
          "name": "",
          "type": "bool"
        }
      ],
      "stateMutability": "nonpayable",
      "type": "function"
    },
    {
      "inputs": [
        {
          "internalType": "address",
          "name": "from",
          "type": "address"
        },
        {
          "internalType": "address",
          "name": "to",
          "type": "address"
        },
        {
          "internalType": "uint256",
          "name": "value",
          "type": "uint256"
        }
      ],
      "name": "transferFrom",
      "outputs": [
        {
          "internalType": "bool",
          "name": "",
          "type": "bool"
        }
      ],
      "stateMutability": "nonpayable",
      "type": "function"
    }
  ],
  "transactionHash": "0x2d79327ad823dd36d8200974525929ff9e1e6cf225962524959c2f85201d27c8",
  "args": [],
  "numDeployments": 2,
  "solcInputHash": "9a0f865004421f55609f1e6edeca4cd1",
  "bytecode": "0x61016060405234801561001157600080fd5b506040518060400160405280600d81526020017f457468657265616c20436f696e00000000000000000000000000000000000000815250806040518060400160405280600181526020017f31000000000000000000000000000000000000000000000000000000000000008152506040518060400160405280600d81526020017f457468657265616c20436f696e000000000000000000000000000000000000008152506040518060400160405280600881526020017f457468657265616c00000000000000000000000000000000000000000000000081525081600390816100fa91906107f2565b50806004908161010a91906107f2565b5050506101216005836101d860201b90919060201c565b610120818152505061013d6006826101d860201b90919060201c565b6101408181525050818051906020012060e08181525050808051906020012061010081815250504660a0818152505061017a61022860201b60201c565b608081815250503073ffffffffffffffffffffffffffffffffffffffff1660c08173ffffffffffffffffffffffffffffffffffffffff16815250505050506101d3336a52b7d2dcc80cd2e400000061028360201b60201c565b610b8e565b60006020835110156101fa576101f38361030b60201b60201c565b9050610222565b8261020a8361037360201b60201c565b600001908161021991906107f2565b5060ff60001b90505b92915050565b60007f8b73c3c69bb8fe3d512ecc4cf759cc79239f7b179b0ffacaa9a75d522b39400f60e05161010051463060405160200161026895949392919061092d565b60405160208183030381529060405280519060200120905090565b600073ffffffffffffffffffffffffffffffffffffffff168273ffffffffffffffffffffffffffffffffffffffff16036102f55760006040517fec442f050000000000000000000000000000000000000000000000000000000081526004016102ec9190610980565b60405180910390fd5b6103076000838361037d60201b60201c565b5050565b600080829050601f8151111561035857826040517f305a27a900000000000000000000000000000000000000000000000000000000815260040161034f9190610a20565b60405180910390fd5b80518161036490610a72565b60001c1760001b915050919050565b6000819050919050565b600073ffffffffffffffffffffffffffffffffffffffff168373ffffffffffffffffffffffffffffffffffffffff16036103cf5780600260008282546103c39190610b08565b925050819055506104a2565b60008060008573ffffffffffffffffffffffffffffffffffffffff1673ffffffffffffffffffffffffffffffffffffffff1681526020019081526020016000205490508181101561045b578381836040517fe450d38c00000000000000000000000000000000000000000000000000000000815260040161045293929190610b3c565b60405180910390fd5b8181036000808673ffffffffffffffffffffffffffffffffffffffff1673ffffffffffffffffffffffffffffffffffffffff16815260200190815260200160002081905550505b600073ffffffffffffffffffffffffffffffffffffffff168273ffffffffffffffffffffffffffffffffffffffff16036104eb5780600260008282540392505081905550610538565b806000808473ffffffffffffffffffffffffffffffffffffffff1673ffffffffffffffffffffffffffffffffffffffff168152602001908152602001600020600082825401925050819055505b8173ffffffffffffffffffffffffffffffffffffffff168373ffffffffffffffffffffffffffffffffffffffff167fddf252ad1be2c89b69c2b068fc378daa952ba7f163c4a11628f55a4df523b3ef836040516105959190610b73565b60405180910390a3505050565b600081519050919050565b7f4e487b7100000000000000000000000000000000000000000000000000000000600052604160045260246000fd5b7f4e487b7100000000000000000000000000000000000000000000000000000000600052602260045260246000fd5b6000600282049050600182168061062357607f821691505b602082108103610636576106356105dc565b5b50919050565b60008190508160005260206000209050919050565b60006020601f8301049050919050565b600082821b905092915050565b60006008830261069e7fffffffffffffffffffffffffffffffffffffffffffffffffffffffffffffffff82610661565b6106a88683610661565b95508019841693508086168417925050509392505050565b6000819050919050565b6000819050919050565b60006106ef6106ea6106e5846106c0565b6106ca565b6106c0565b9050919050565b6000819050919050565b610709836106d4565b61071d610715826106f6565b84845461066e565b825550505050565b600090565b610732610725565b61073d818484610700565b505050565b5b818110156107615761075660008261072a565b600181019050610743565b5050565b601f8211156107a6576107778161063c565b61078084610651565b8101602085101561078f578190505b6107a361079b85610651565b830182610742565b50505b505050565b600082821c905092915050565b60006107c9600019846008026107ab565b1980831691505092915050565b60006107e283836107b8565b9150826002028217905092915050565b6107fb826105a2565b67ffffffffffffffff811115610814576108136105ad565b5b61081e825461060b565b610829828285610765565b600060209050601f83116001811461085c576000841561084a578287015190505b61085485826107d6565b8655506108bc565b601f19841661086a8661063c565b60005b828110156108925784890151825560018201915060208501945060208101905061086d565b868310156108af57848901516108ab601f8916826107b8565b8355505b6001600288020188555050505b505050505050565b6000819050919050565b6108d7816108c4565b82525050565b6108e6816106c0565b82525050565b600073ffffffffffffffffffffffffffffffffffffffff82169050919050565b6000610917826108ec565b9050919050565b6109278161090c565b82525050565b600060a08201905061094260008301886108ce565b61094f60208301876108ce565b61095c60408301866108ce565b61096960608301856108dd565b610976608083018461091e565b9695505050505050565b6000602082019050610995600083018461091e565b92915050565b600082825260208201905092915050565b60005b838110156109ca5780820151818401526020810190506109af565b60008484015250505050565b6000601f19601f8301169050919050565b60006109f2826105a2565b6109fc818561099b565b9350610a0c8185602086016109ac565b610a15816109d6565b840191505092915050565b60006020820190508181036000830152610a3a81846109e7565b905092915050565b600081519050919050565b6000819050602082019050919050565b6000610a6982516108c4565b80915050919050565b6000610a7d82610a42565b82610a8784610a4d565b9050610a9281610a5d565b92506020821015610ad257610acd7fffffffffffffffffffffffffffffffffffffffffffffffffffffffffffffffff83602003600802610661565b831692505b5050919050565b7f4e487b7100000000000000000000000000000000000000000000000000000000600052601160045260246000fd5b6000610b13826106c0565b9150610b1e836106c0565b9250828201905080821115610b3657610b35610ad9565b5b92915050565b6000606082019050610b51600083018661091e565b610b5e60208301856108dd565b610b6b60408301846108dd565b949350505050565b6000602082019050610b8860008301846108dd565b92915050565b60805160a05160c05160e051610100516101205161014051611c18610be86000396000610a3f01526000610a0401526000610f5401526000610f33015260006108ff015260006109550152600061097e0152611c186000f3fe608060405234801561001057600080fd5b50600436106100cf5760003560e01c806370a082311161008c57806395d89b411161006657806395d89b4114610230578063a9059cbb1461024e578063d505accf1461027e578063dd62ed3e1461029a576100cf565b806370a08231146101ac5780637ecebe00146101dc57806384b0196e1461020c576100cf565b806306fdde03146100d4578063095ea7b3146100f257806318160ddd1461012257806323b872dd14610140578063313ce567146101705780633644e5151461018e575b600080fd5b6100dc6102ca565b6040516100e99190611441565b60405180910390f35b61010c600480360381019061010791906114fc565b61035c565b6040516101199190611557565b60405180910390f35b61012a61037f565b6040516101379190611581565b60405180910390f35b61015a6004803603810190610155919061159c565b610389565b6040516101679190611557565b60405180910390f35b6101786103b8565b604051610185919061160b565b60405180910390f35b6101966103c1565b6040516101a3919061163f565b60405180910390f35b6101c660048036038101906101c1919061165a565b6103d0565b6040516101d39190611581565b60405180910390f35b6101f660048036038101906101f1919061165a565b610418565b6040516102039190611581565b60405180910390f35b61021461042a565b604051610227979695949392919061178f565b60405180910390f35b6102386104d4565b6040516102459190611441565b60405180910390f35b610268600480360381019061026391906114fc565b610566565b6040516102759190611557565b60405180910390f35b6102986004803603810190610293919061186b565b610589565b005b6102b460048036038101906102af919061190d565b6106d1565b6040516102c19190611581565b60405180910390f35b6060600380546102d99061197c565b80601f01602080910402602001604051908101604052809291908181526020018280546103059061197c565b80156103525780601f1061032757610100808354040283529160200191610352565b820191906000526020600020905b81548152906001019060200180831161033557829003601f168201915b5050505050905090565b600080610367610758565b9050610374818585610760565b600191505092915050565b6000600254905090565b600080610394610758565b90506103a1858285610772565b6103ac858585610807565b60019150509392505050565b60006012905090565b60006103cb6108fb565b905090565b60008060008373ffffffffffffffffffffffffffffffffffffffff1673ffffffffffffffffffffffffffffffffffffffff168152602001908152602001600020549050919050565b6000610423826109b2565b9050919050565b60006060806000806000606061043e6109fb565b610446610a36565b46306000801b600067ffffffffffffffff811115610467576104666119ad565b5b6040519080825280602002602001820160405280156104955781602001602082028036833780820191505090505b507f0f00000000000000000000000000000000000000000000000000000000000000959493929190965096509650965096509650965090919293949596565b6060600480546104e39061197c565b80601f016020809104026020016040519081016040528092919081815260200182805461050f9061197c565b801561055c5780601f106105315761010080835404028352916020019161055c565b820191906000526020600020905b81548152906001019060200180831161053f57829003601f168201915b5050505050905090565b600080610571610758565b905061057e818585610807565b600191505092915050565b834211156105ce57836040517f627913020000000000000000000000000000000000000000000000000000000081526004016105c59190611581565b60405180910390fd5b60007f6e71edae12b1b97f4d1f60370fef10105fa2faae0126114a169c64845d6126c98888886105fd8c610a71565b89604051602001610613969594939291906119dc565b604051602081830303815290604052805190602001209050600061063682610ac8565b9050600061064682878787610ae2565b90508973ffffffffffffffffffffffffffffffffffffffff168173ffffffffffffffffffffffffffffffffffffffff16146106ba57808a6040517f4b800e460000000000000000000000000000000000000000000000000000000081526004016106b1929190611a3d565b60405180910390fd5b6106c58a8a8a610760565b50505050505050505050565b6000600160008473ffffffffffffffffffffffffffffffffffffffff1673ffffffffffffffffffffffffffffffffffffffff16815260200190815260200160002060008373ffffffffffffffffffffffffffffffffffffffff1673ffffffffffffffffffffffffffffffffffffffff16815260200190815260200160002054905092915050565b600033905090565b61076d8383836001610b12565b505050565b600061077e84846106d1565b90507fffffffffffffffffffffffffffffffffffffffffffffffffffffffffffffffff81101561080157818110156107f1578281836040517ffb8f41b20000000000000000000000000000000000000000000000000000000081526004016107e893929190611a66565b60405180910390fd5b61080084848484036000610b12565b5b50505050565b600073ffffffffffffffffffffffffffffffffffffffff168373ffffffffffffffffffffffffffffffffffffffff16036108795760006040517f96c6fd1e0000000000000000000000000000000000000000000000000000000081526004016108709190611a9d565b60405180910390fd5b600073ffffffffffffffffffffffffffffffffffffffff168273ffffffffffffffffffffffffffffffffffffffff16036108eb5760006040517fec442f050000000000000000000000000000000000000000000000000000000081526004016108e29190611a9d565b60405180910390fd5b6108f6838383610ce9565b505050565b60007f000000000000000000000000000000000000000000000000000000000000000073ffffffffffffffffffffffffffffffffffffffff163073ffffffffffffffffffffffffffffffffffffffff1614801561097757507f000000000000000000000000000000000000000000000000000000000000000046145b156109a4577f000000000000000000000000000000000000000000000000000000000000000090506109af565b6109ac610f0e565b90505b90565b6000600760008373ffffffffffffffffffffffffffffffffffffffff1673ffffffffffffffffffffffffffffffffffffffff168152602001908152602001600020549050919050565b6060610a3160057f0000000000000000000000000000000000000000000000000000000000000000610fa490919063ffffffff16565b905090565b6060610a6c60067f0000000000000000000000000000000000000000000000000000000000000000610fa490919063ffffffff16565b905090565b6000600760008373ffffffffffffffffffffffffffffffffffffffff1673ffffffffffffffffffffffffffffffffffffffff1681526020019081526020016000206000815480929190600101919050559050919050565b6000610adb610ad56108fb565b83611054565b9050919050565b600080600080610af488888888611095565b925092509250610b048282611189565b829350505050949350505050565b600073ffffffffffffffffffffffffffffffffffffffff168473ffffffffffffffffffffffffffffffffffffffff1603610b845760006040517fe602df05000000000000000000000000000000000000000000000000000000008152600401610b7b9190611a9d565b60405180910390fd5b600073ffffffffffffffffffffffffffffffffffffffff168373ffffffffffffffffffffffffffffffffffffffff1603610bf65760006040517f94280d62000000000000000000000000000000000000000000000000000000008152600401610bed9190611a9d565b60405180910390fd5b81600160008673ffffffffffffffffffffffffffffffffffffffff1673ffffffffffffffffffffffffffffffffffffffff16815260200190815260200160002060008573ffffffffffffffffffffffffffffffffffffffff1673ffffffffffffffffffffffffffffffffffffffff168152602001908152602001600020819055508015610ce3578273ffffffffffffffffffffffffffffffffffffffff168473ffffffffffffffffffffffffffffffffffffffff167f8c5be1e5ebec7d5bd14f71427d1e84f3dd0314c0f7b2291e5b200ac8c7c3b92584604051610cda9190611581565b60405180910390a35b50505050565b600073ffffffffffffffffffffffffffffffffffffffff168373ffffffffffffffffffffffffffffffffffffffff1603610d3b578060026000828254610d2f9190611ae7565b92505081905550610e0e565b60008060008573ffffffffffffffffffffffffffffffffffffffff1673ffffffffffffffffffffffffffffffffffffffff16815260200190815260200160002054905081811015610dc7578381836040517fe450d38c000000000000000000000000000000000000000000000000000000008152600401610dbe93929190611a66565b60405180910390fd5b8181036000808673ffffffffffffffffffffffffffffffffffffffff1673ffffffffffffffffffffffffffffffffffffffff16815260200190815260200160002081905550505b600073ffffffffffffffffffffffffffffffffffffffff168273ffffffffffffffffffffffffffffffffffffffff1603610e575780600260008282540392505081905550610ea4565b806000808473ffffffffffffffffffffffffffffffffffffffff1673ffffffffffffffffffffffffffffffffffffffff168152602001908152602001600020600082825401925050819055505b8173ffffffffffffffffffffffffffffffffffffffff168373ffffffffffffffffffffffffffffffffffffffff167fddf252ad1be2c89b69c2b068fc378daa952ba7f163c4a11628f55a4df523b3ef83604051610f019190611581565b60405180910390a3505050565b60007f8b73c3c69bb8fe3d512ecc4cf759cc79239f7b179b0ffacaa9a75d522b39400f7f00000000000000000000000000000000000000000000000000000000000000007f00000000000000000000000000000000000000000000000000000000000000004630604051602001610f89959493929190611b1b565b60405160208183030381529060405280519060200120905090565b606060ff60001b8314610fc157610fba836112ed565b905061104e565b818054610fcd9061197c565b80601f0160208091040260200160405190810160405280929190818152602001828054610ff99061197c565b80156110465780601f1061101b57610100808354040283529160200191611046565b820191906000526020600020905b81548152906001019060200180831161102957829003601f168201915b505050505090505b92915050565b60006040517f190100000000000000000000000000000000000000000000000000000000000081528360028201528260228201526042812091505092915050565b60008060007f7fffffffffffffffffffffffffffffff5d576e7357a4501ddfe92f46681b20a08460001c11156110d557600060038592509250925061117f565b6000600188888888604051600081526020016040526040516110fa9493929190611b6e565b6020604051602081039080840390855afa15801561111c573d6000803e3d6000fd5b505050602060405103519050600073ffffffffffffffffffffffffffffffffffffffff168173ffffffffffffffffffffffffffffffffffffffff160361117057600060016000801b9350935093505061117f565b8060008060001b935093509350505b9450945094915050565b6000600381111561119d5761119c611bb3565b5b8260038111156111b0576111af611bb3565b5b03156112e957600160038111156111ca576111c9611bb3565b5b8260038111156111dd576111dc611bb3565b5b03611214576040517ff645eedf00000000000000000000000000000000000000000000000000000000815260040160405180910390fd5b6002600381111561122857611227611bb3565b5b82600381111561123b5761123a611bb3565b5b03611280578060001c6040517ffce698f70000000000000000000000000000000000000000000000000000000081526004016112779190611581565b60405180910390fd5b60038081111561129357611292611bb3565b5b8260038111156112a6576112a5611bb3565b5b036112e857806040517fd78bce0c0000000000000000000000000000000000000000000000000000000081526004016112df919061163f565b60405180910390fd5b5b5050565b606060006112fa83611361565b90506000602067ffffffffffffffff811115611319576113186119ad565b5b6040519080825280601f01601f19166020018201604052801561134b5781602001600182028036833780820191505090505b5090508181528360208201528092505050919050565b60008060ff8360001c169050601f8111156113a8576040517fb3512b0c00000000000000000000000000000000000000000000000000000000815260040160405180910390fd5b80915050919050565b600081519050919050565b600082825260208201905092915050565b60005b838110156113eb5780820151818401526020810190506113d0565b60008484015250505050565b6000601f19601f8301169050919050565b6000611413826113b1565b61141d81856113bc565b935061142d8185602086016113cd565b611436816113f7565b840191505092915050565b6000602082019050818103600083015261145b8184611408565b905092915050565b600080fd5b600073ffffffffffffffffffffffffffffffffffffffff82169050919050565b600061149382611468565b9050919050565b6114a381611488565b81146114ae57600080fd5b50565b6000813590506114c08161149a565b92915050565b6000819050919050565b6114d9816114c6565b81146114e457600080fd5b50565b6000813590506114f6816114d0565b92915050565b6000806040838503121561151357611512611463565b5b6000611521858286016114b1565b9250506020611532858286016114e7565b9150509250929050565b60008115159050919050565b6115518161153c565b82525050565b600060208201905061156c6000830184611548565b92915050565b61157b816114c6565b82525050565b60006020820190506115966000830184611572565b92915050565b6000806000606084860312156115b5576115b4611463565b5b60006115c3868287016114b1565b93505060206115d4868287016114b1565b92505060406115e5868287016114e7565b9150509250925092565b600060ff82169050919050565b611605816115ef565b82525050565b600060208201905061162060008301846115fc565b92915050565b6000819050919050565b61163981611626565b82525050565b60006020820190506116546000830184611630565b92915050565b6000602082840312156116705761166f611463565b5b600061167e848285016114b1565b91505092915050565b60007fff0000000000000000000000000000000000000000000000000000000000000082169050919050565b6116bc81611687565b82525050565b6116cb81611488565b82525050565b600081519050919050565b600082825260208201905092915050565b6000819050602082019050919050565b611706816114c6565b82525050565b600061171883836116fd565b60208301905092915050565b6000602082019050919050565b600061173c826116d1565b61174681856116dc565b9350611751836116ed565b8060005b83811015611782578151611769888261170c565b975061177483611724565b925050600181019050611755565b5085935050505092915050565b600060e0820190506117a4600083018a6116b3565b81810360208301526117b68189611408565b905081810360408301526117ca8188611408565b90506117d96060830187611572565b6117e660808301866116c2565b6117f360a0830185611630565b81810360c08301526118058184611731565b905098975050505050505050565b61181c816115ef565b811461182757600080fd5b50565b60008135905061183981611813565b92915050565b61184881611626565b811461185357600080fd5b50565b6000813590506118658161183f565b92915050565b600080600080600080600060e0888a03121561188a57611889611463565b5b60006118988a828b016114b1565b97505060206118a98a828b016114b1565b96505060406118ba8a828b016114e7565b95505060606118cb8a828b016114e7565b94505060806118dc8a828b0161182a565b93505060a06118ed8a828b01611856565b92505060c06118fe8a828b01611856565b91505092959891949750929550565b6000806040838503121561192457611923611463565b5b6000611932858286016114b1565b9250506020611943858286016114b1565b9150509250929050565b7f4e487b7100000000000000000000000000000000000000000000000000000000600052602260045260246000fd5b6000600282049050600182168061199457607f821691505b6020821081036119a7576119a661194d565b5b50919050565b7f4e487b7100000000000000000000000000000000000000000000000000000000600052604160045260246000fd5b600060c0820190506119f16000830189611630565b6119fe60208301886116c2565b611a0b60408301876116c2565b611a186060830186611572565b611a256080830185611572565b611a3260a0830184611572565b979650505050505050565b6000604082019050611a5260008301856116c2565b611a5f60208301846116c2565b9392505050565b6000606082019050611a7b60008301866116c2565b611a886020830185611572565b611a956040830184611572565b949350505050565b6000602082019050611ab260008301846116c2565b92915050565b7f4e487b7100000000000000000000000000000000000000000000000000000000600052601160045260246000fd5b6000611af2826114c6565b9150611afd836114c6565b9250828201905080821115611b1557611b14611ab8565b5b92915050565b600060a082019050611b306000830188611630565b611b3d6020830187611630565b611b4a6040830186611630565b611b576060830185611572565b611b6460808301846116c2565b9695505050505050565b6000608082019050611b836000830187611630565b611b9060208301866115fc565b611b9d6040830185611630565b611baa6060830184611630565b95945050505050565b7f4e487b7100000000000000000000000000000000000000000000000000000000600052602160045260246000fdfea2646970667358221220308e68b0b87a54f384bbeb65fa9f9bebc1720d5c7541551e16d1eee728e0436a64736f6c634300081c0033",
  "devdoc": {
    "errors": {
      "ECDSAInvalidSignature()": [
        {
          "details": "The signature derives the `address(0)`."
        }
      ],
      "ECDSAInvalidSignatureLength(uint256)": [
        {
          "details": "The signature has an invalid length."
        }
      ],
      "ECDSAInvalidSignatureS(bytes32)": [
        {
          "details": "The signature has an S value that is in the upper half order."
        }
      ],
      "ERC20InsufficientAllowance(address,uint256,uint256)": [
        {
          "details": "Indicates a failure with the `spender`s `allowance`. Used in transfers.",
          "params": {
            "allowance": "Amount of tokens a `spender` is allowed to operate with.",
            "needed": "Minimum amount required to perform a transfer.",
            "spender": "Address that may be allowed to operate on tokens without being their owner."
          }
        }
      ],
      "ERC20InsufficientBalance(address,uint256,uint256)": [
        {
          "details": "Indicates an error related to the current `balance` of a `sender`. Used in transfers.",
          "params": {
            "balance": "Current balance for the interacting account.",
            "needed": "Minimum amount required to perform a transfer.",
            "sender": "Address whose tokens are being transferred."
          }
        }
      ],
      "ERC20InvalidApprover(address)": [
        {
          "details": "Indicates a failure with the `approver` of a token to be approved. Used in approvals.",
          "params": {
            "approver": "Address initiating an approval operation."
          }
        }
      ],
      "ERC20InvalidReceiver(address)": [
        {
          "details": "Indicates a failure with the token `receiver`. Used in transfers.",
          "params": {
            "receiver": "Address to which tokens are being transferred."
          }
        }
      ],
      "ERC20InvalidSender(address)": [
        {
          "details": "Indicates a failure with the token `sender`. Used in transfers.",
          "params": {
            "sender": "Address whose tokens are being transferred."
          }
        }
      ],
      "ERC20InvalidSpender(address)": [
        {
          "details": "Indicates a failure with the `spender` to be approved. Used in approvals.",
          "params": {
            "spender": "Address that may be allowed to operate on tokens without being their owner."
          }
        }
      ],
      "ERC2612ExpiredSignature(uint256)": [
        {
          "details": "Permit deadline has expired."
        }
      ],
      "ERC2612InvalidSigner(address,address)": [
        {
          "details": "Mismatched signature."
        }
      ],
      "InvalidAccountNonce(address,uint256)": [
        {
          "details": "The nonce used for an `account` is not the expected current nonce."
        }
      ]
    },
    "events": {
      "Approval(address,address,uint256)": {
        "details": "Emitted when the allowance of a `spender` for an `owner` is set by a call to {approve}. `value` is the new allowance."
      },
      "EIP712DomainChanged()": {
        "details": "MAY be emitted to signal that the domain could have changed."
      },
      "Transfer(address,address,uint256)": {
        "details": "Emitted when `value` tokens are moved from one account (`from`) to another (`to`). Note that `value` may be zero."
      }
    },
    "kind": "dev",
    "methods": {
      "DOMAIN_SEPARATOR()": {
        "details": "Returns the domain separator used in the encoding of the signature for {permit}, as defined by {EIP712}."
      },
      "allowance(address,address)": {
        "details": "See {IERC20-allowance}."
      },
      "approve(address,uint256)": {
        "details": "See {IERC20-approve}. NOTE: If `value` is the maximum `uint256`, the allowance is not updated on `transferFrom`. This is semantically equivalent to an infinite approval. Requirements: - `spender` cannot be the zero address."
      },
      "balanceOf(address)": {
        "details": "See {IERC20-balanceOf}."
      },
      "decimals()": {
        "details": "Returns the number of decimals used to get its user representation. For example, if `decimals` equals `2`, a balance of `505` tokens should be displayed to a user as `5.05` (`505 / 10 ** 2`). Tokens usually opt for a value of 18, imitating the relationship between Ether and Wei. This is the default value returned by this function, unless it's overridden. NOTE: This information is only used for _display_ purposes: it in no way affects any of the arithmetic of the contract, including {IERC20-balanceOf} and {IERC20-transfer}."
      },
      "eip712Domain()": {
        "details": "See {IERC-5267}."
      },
      "name()": {
        "details": "Returns the name of the token."
      },
      "nonces(address)": {
        "details": "Returns the current nonce for `owner`. This value must be included whenever a signature is generated for {permit}. Every successful call to {permit} increases ``owner``'s nonce by one. This prevents a signature from being used multiple times."
      },
      "permit(address,address,uint256,uint256,uint8,bytes32,bytes32)": {
        "details": "Sets `value` as the allowance of `spender` over ``owner``'s tokens, given ``owner``'s signed approval. IMPORTANT: The same issues {IERC20-approve} has related to transaction ordering also apply here. Emits an {Approval} event. Requirements: - `spender` cannot be the zero address. - `deadline` must be a timestamp in the future. - `v`, `r` and `s` must be a valid `secp256k1` signature from `owner` over the EIP712-formatted function arguments. - the signature must use ``owner``'s current nonce (see {nonces}). For more information on the signature format, see the https://eips.ethereum.org/EIPS/eip-2612#specification[relevant EIP section]. CAUTION: See Security Considerations above."
      },
      "symbol()": {
        "details": "Returns the symbol of the token, usually a shorter version of the name."
      },
      "totalSupply()": {
        "details": "See {IERC20-totalSupply}."
      },
      "transfer(address,uint256)": {
        "details": "See {IERC20-transfer}. Requirements: - `to` cannot be the zero address. - the caller must have a balance of at least `value`."
      },
      "transferFrom(address,address,uint256)": {
        "details": "See {IERC20-transferFrom}. Skips emitting an {Approval} event indicating an allowance update. This is not required by the ERC. See {xref-ERC20-_approve-address-address-uint256-bool-}[_approve]. NOTE: Does not update the allowance if the current allowance is the maximum `uint256`. Requirements: - `from` and `to` cannot be the zero address. - `from` must have a balance of at least `value`. - the caller must have allowance for ``from``'s tokens of at least `value`."
      }
    },
    "version": 1
  },
  "userdoc": {
    "kind": "user",
    "methods": {},
    "version": 1
  },
  "storageLayout": {
    "storage": [
      {
        "astId": 184,
        "contract": "contracts/EtherealCoin.sol:EtherealCoin",
        "label": "_balances",
        "offset": 0,
        "slot": "0",
        "type": "t_mapping(t_address,t_uint256)"
      },
      {
        "astId": 190,
        "contract": "contracts/EtherealCoin.sol:EtherealCoin",
        "label": "_allowances",
        "offset": 0,
        "slot": "1",
        "type": "t_mapping(t_address,t_mapping(t_address,t_uint256))"
      },
      {
        "astId": 192,
        "contract": "contracts/EtherealCoin.sol:EtherealCoin",
        "label": "_totalSupply",
        "offset": 0,
        "slot": "2",
        "type": "t_uint256"
      },
      {
        "astId": 194,
        "contract": "contracts/EtherealCoin.sol:EtherealCoin",
        "label": "_name",
        "offset": 0,
        "slot": "3",
        "type": "t_string_storage"
      },
      {
        "astId": 196,
        "contract": "contracts/EtherealCoin.sol:EtherealCoin",
        "label": "_symbol",
        "offset": 0,
        "slot": "4",
        "type": "t_string_storage"
      },
      {
        "astId": 3046,
        "contract": "contracts/EtherealCoin.sol:EtherealCoin",
        "label": "_nameFallback",
        "offset": 0,
        "slot": "5",
        "type": "t_string_storage"
      },
      {
        "astId": 3048,
        "contract": "contracts/EtherealCoin.sol:EtherealCoin",
        "label": "_versionFallback",
        "offset": 0,
        "slot": "6",
        "type": "t_string_storage"
      },
      {
        "astId": 1014,
        "contract": "contracts/EtherealCoin.sol:EtherealCoin",
        "label": "_nonces",
        "offset": 0,
        "slot": "7",
        "type": "t_mapping(t_address,t_uint256)"
      }
    ],
    "types": {
      "t_address": {
        "encoding": "inplace",
        "label": "address",
        "numberOfBytes": "20"
      },
      "t_mapping(t_address,t_mapping(t_address,t_uint256))": {
        "encoding": "mapping",
        "key": "t_address",
        "label": "mapping(address => mapping(address => uint256))",
        "numberOfBytes": "32",
        "value": "t_mapping(t_address,t_uint256)"
      },
      "t_mapping(t_address,t_uint256)": {
        "encoding": "mapping",
        "key": "t_address",
        "label": "mapping(address => uint256)",
        "numberOfBytes": "32",
        "value": "t_uint256"
      },
      "t_string_storage": {
        "encoding": "bytes",
        "label": "string",
        "numberOfBytes": "32"
      },
      "t_uint256": {
        "encoding": "inplace",
        "label": "uint256",
        "numberOfBytes": "32"
      }
    }
  }
}